:020000040800F2
:10000000005000203104000877040008790400083B
:100010007B0400087D0400087F0400080000000045
:100020000000000000000000000000008104000843
:10003000830400080000000085040008870400080D
:100040008B0400088D0400088F0400089104000848
:100050009304000895040008970400089904000818
:100060009B0400089D0400089F040008A1040008E8
:10007000A3040008A5040008A7040008A9040008B8
:10008000AB040008AD040008AF040008B104000888
:10009000B3040008B5040008B7040008B904000858
:1000A000BB040008BD040008BF040008C104000828
:1000B000C3040008C5040008C7040008C9040008F8
:1000C000CB040008CD040008CF040008D1040008C8
:1000D000D3040008D5040008D7040008D904000898
:1000E000DB040008DD040008DF04000810B5054C3F
:1000F000237833B9044B13B10448AFF300800123D4
:10010000237010BD94000020000000009406000839
:10011000084B10B51BB108490848AFF300800848E8
:10012000036803B910BD074B002BFBD0BDE810409E
:10013000184700BF00000000980000209406000847
:100140009400002000000000154B002B08BF134B4B
:100150009D46A3F5803A00218B460F461348144A6A
:10016000121A00F07DFA0F4B002B00D098470E4B6F
:10017000002B00D098470020002104000D000D48FE
:10018000002802D00C48AFF3008000F043FA2000B2
:10019000290000F015F900F029FA00BF000008005E
:1001A000005000200000000000000000940000202B
:1001B000B4000020000000000000000008B56FF04F
:1001C000040000F071F8084B084A1B680848A2FBBD
:1001D0000323C3F34753C3EB431203EB82020549E6
:1001E000D20003700A8008BD2800002083DE1B4374
:1001F000B0000020B20000200D4B10B419460D4A8B
:100200000024128800FB02F058609C601A6842F0DB
:1002100001021A600B68064A03F00113012BF9D0A2
:100220001368002123F001031360916010BC704734
:1002300010E000E0B2000020F0B50D4C83B004F1F6
:10024000280710260325E068012100F0ABF8238978
:10025000606801A914348DF807608DF80650ADF878
:10026000043000F02DF8BC42EDD103B0F0BD00BF6A
:1002700000000020044B00EB800003EB80000189AC
:100280000122406800F088B800000020054B00EB18
:10029000800003EB800042680189D3684B40D36043
:1002A000704700BF00000020044A042813680CBFF8
:1002B00043F0040323F004031360704710E000E0F0
:1002C000CB782DE9F04103F00F06DB0648BF8B78B1
:1002D0000C8848BF1E4314F0FF0F26D0056800238A
:1002E00001274FF00F0803E00133082B1BD00C88C7
:1002F00007FA03F232EA0404F6D19C0091F803E015
:1003000008FA04FC25EA0C0506FA04F4BEF1280FED
:1003100045EA040538D0BEF1480F03F1010308BFD8
:100320000261082BE3D105600C88FF2C2AD94568AF
:10033000002301274FF00F0C03E00133082B20D0DE
:100340000C8803F1080207FA02F232EA0404F4D13D
:1003500091F803E09C00BEF1280F04BF426191F8C0
:1003600003E00CFA04F8BEF1480F03F1010325EA9B
:10037000080506FA04F408BF0261082B45EA0405E3
:10038000DED14560BDE8F0814261ADE78368194286
:1003900014BF0120002070470AB941617047016114
:1003A000704700BF29B9054A936923EA00009061AC
:1003B0007047024B9A6910439861704700100240E1
:1003C00000B583B000F090F8FFF7F8FEFFF734FFB8
:1003D00001210820FFF7E6FF04224FF40044022326
:1003E0000DEB02011148ADF804408DF807208DF89F
:1003F0000630FFF765FF09E00020FFF747FF012007
:10040000FFF744FF4FF4FA70FFF7F6FE4FF4004198
:100410000648FFF7BBFF04460028EDD10120FFF797
:1004200029FF2046FFF726FFECE700BF000C014044
:100430000649074A074B9A42BEBF51F8040B42F8DF
:10044000040BF8E70448804704480047A00600086A
:100450000000002094000020E90400084901000881
:100460001F49204A002301E041F8043B9142FBD39D
:10047000FFF7A6FFFEE7FEE7FEE7FEE7FEE7FEE783
:10048000FEE7FEE7FEE7FEE7FEE7FEE7FEE7FEE744
:10049000FEE7FEE7FEE7FEE7FEE7FEE7FEE7FEE734
:1004A000FEE7FEE7FEE7FEE7FEE7FEE7FEE7FEE724
:1004B000FEE7FEE7FEE7FEE7FEE7FEE7FEE7FEE714
:1004C000FEE7FEE7FEE7FEE7FEE7FEE7FEE7FEE704
:1004D000FEE7FEE7FEE7FEE7FEE7FEE7FEE7FEE7F4
:1004E00094000020B400002030B43C4B3C49186814
:1004F00082B040F0010018605D680020294059601A
:1005000019684FF41F0421F0847121F480311960BF
:1005100019681A4621F480211960596821F4FE01F6
:1005200059609C6000900190196841F48031196015
:1005300003E0009BB3F5A06F09D0136803F4003308
:100540000193009B01330093019B002BF1D0234BBF
:100550001B6813F4003318BF01230193019B012B87
:1005600006D0204B4FF000629A6002B030BC70475A
:100570001D4A1A4B1068194640F0100010601068B0
:1005800020F003001060106840F0020010605A680C
:100590005A605A685A605A6842F480625A605A68CF
:1005A00022F47C125A605A6842F4A8125A601A68FF
:1005B00042F080721A600B68084A9B01FBD5114615
:1005C000536823F003035360536843F002035360FE
:1005D0004B6803F00C03082BFAD1C2E7001002406D
:1005E0000000FFF800ED00E00020024008B5074BD6
:1005F000044613B10021AFF30080054B1868836AED
:1006000003B19847204600F033F800BF0000000017
:10061000900600080E4B70B51E460E4C0025E41ADD
:10062000A410A54204D056F8253098470135F8E7C4
:1006300000F020F8084B094C1E46E41AA4100025CF
:10064000A54204D056F8253098470135F8E770BD2B
:100650008C0000208C0000208C00002090000020E6
:1006600003460244934202D003F8011BFAE77047A5
:10067000FEE70000F8B500BFF8BC08BC9E46704716
:10068000F8B500BFF8BC08BC9E46704743000000A8
:080690002C0000200000000016
:08069800B0FAFF7F0100000031
:1006A00000000000001001400020000010000000C9
:1006B0000000000001000000000C014000010000EB
:1006C0000800000000000000007E5603000000004B
:1006D000000000000000000000000000000000001A
:1006E0000000000000000000000000008C06000870
:1006F00000000000000000000000000000000000FA
:1007000000000000000000000000000000000000E9
:1007100000000000000000000000000000000000D9
:1007200000000000000000000000000011010008AF
:04073000ED000008D0
:0400000508000000EF
:00000001FF
